:020000040800F2
:10000000705E0020C10100089F4E0008F9460008FC
:100010009D4E0008F514000865620008000000000D
:10002000000000000000000000000000E95B000884
:10003000C11500080000000031500008EB5B00080B
:10004000DB010008DB010008DB010008DB01000820
:10005000DB010008DB010008DB010008DB01000810
:10006000DB010008DB010008DB010008DB01000800
:10007000DB010008DB010008DB010008DB010008F0
:10008000F9140008DB0100081D130008DB0100085B
:10009000DB010008DB010008DB010008DB010008D0
:1000A000DB010008DB010008DB010008DB010008C0
:1000B000DB010008DB010008DB010008DB010008B0
:1000C000DB010008DB010008DB010008DB010008A0
:1000D000DB01000859620008DB010008DB010008B1
:1000E000DB010008DB010008DB010008DB01000880
:1000F000DB0100089D5C0008DB010008DB01000853
:10010000DB010008DB010008DB010008DB0100085F
:10011000DB010008DB010008DB010008DB0100084F
:1001200005150008DB01000811150008DB010008B7
:10013000DB010008DB010008DB010008DB0100082F
:10014000DB010008DB010008DB010008DB0100081F
:10015000DB010008DB010008DB010008DB0100080F
:10016000DB010008DB010008DB010008DB010008FF
:10017000DB010008DB010008DB01000800000000D3
:10018000DB010008DB010008DB010008DB010008DF
:10019000DB010008DB010008DB010008DB010008CF
:1001A000DB010008DB010008DB010008DFF80CD0F0
:1001B00000F0B6FD004800473DA80008705E002032
:1001C0000648804706480047FEE7FEE7FEE7FEE7F1
:1001D000FEE7FEE7FEE7FEE7FEE7FEE78D5C0008D0
:1001E000AD0100082DE9F05F0546002092469B46D0
:1001F00088460646814640241BE02846414647463D
:10020000224600F04DFB53465A46C01A914110D386
:1002100011461846224600F034FB2D1A67EB010800
:100220004F4622460120002100F02BFB17EB00096E
:100230004E41201EA4F10104DFDC484631462A4627
:100240004346BDE8F09F0000004870476878030807
:1002500010B50446FFF7F8FF0068005D00F00100EC
:1002600010BD10B5431A934209D28318881803E0D1
:1002700010F8011D03F8011D521EF9D210BD40EA0D
:1002800001039B0703D009E008C9121F08C0042A14
:10029000FAD203E011F8013B00F8013B521EF9D2FB
:1002A00010BDD2B201E000F8012B491EFBD270470D
:1002B0000022F6E710B513460A4604461946FFF732
:1002C000F0FF204610BD10B5044604E00B7800F89E
:1002D000013B03B1491C521EF8D2204610BDCAB2E0
:1002E000401E10F8011F8A4202D00029F9D10020D7
:1002F0007047421C10F8011B0029FBD1801A70477F
:1003000010B5002200E0521C835C8C5CA34201D13A
:10031000002BF8D1D8B2E1B2401A10BD034611F853
:10032000012B00F8012B002AF9D11846704730B58F
:1003300005460020034600E05B1C934205D2EC5CBE
:10034000C85C201A01D1002CF6D130BD0FB400B525
:100350008DB010A909900B9000914FF0FF300A90DA
:1003600000200C9005480690054807906A4609A8A9
:100370000F9900F0B9FA0DB05DF814FB05090008FB
:10038000230900082DE9FF5F1D464FF0FF3BD5E92B
:10039000014691465F464FF00008A9697F1C01980D
:1003A0008847296A824688470028F6D1BAF1FF3F7C
:1003B0000CD024F4C064002E19DD600614D5BAF107
:1003C0002B0F09D0BAF12D0F0ED103E0584604B01F
:1003D000BDE8F09F44F48064A9697F1C01988847B8
:1003E000761E8246002E02DDBAF1300F03D0B9F13D
:1003F000000F26D032E0A969761E44F400747F1CF9
:10040000019888478246002E05DDBAF1780F06D0A4
:10041000BAF1580F03D0B9F1000F10D01EE0B9F1B6
:10042000000F02D0B9F1100F18D1A969761E24F47B
:1004300000747F1C019888478246102002E0082043
:1004400000E00A20814609E008FB0908A969761E38
:1004500044F400747F1C019888478246002E05DD15
:100460004946504600F02CFA0028EDDAE969019877
:100470008847A00502D46FF00100A8E7E00725D166
:10048000600613D5600502D5C8F1000000E04046C3
:1004900029680A1D2A600968220501D5087015E03F
:1004A000220701D5088011E008600FE02868011DCF
:1004B00029600068210502D580F8008006E0210748
:1004C00002D5A0F8008001E0C0F8008038467EE741
:1004D0002DE9FF4F087883B09946FF2805D0491CC5
:1004E0002D2804D00024002008E000200BE0012487
:1004F000F9E700EB800003EB4000491C0B78FF2B71
:10050000F7D104B1404200230293147819461D46E6
:100510002D2C01D02B2C04D1521C2D2C13D00024B7
:100520000294AA461478FF2C0FD00A25A3FB057865
:1005300001FB05814FF0000C03FB0C11521CE31969
:100540004AEB0101EEE70124EAE7814453EA0100A6
:1005500002D019F5C87F06DA03980021C0E900111E
:1005600007B0BDE8F08F0025AE4E2F46DFF8B88209
:10057000184600F07CFBCDE90001B9F1000002DA79
:10058000C9F1000400E004460023A74A1AEB030B5C
:1005900042EB045A12E0E00707D02A4633463846B9
:1005A000414600F083FA074688462A4633461046FD
:1005B000194600F07BFA05460E466410002CEAD17D
:1005C000DDE90001B9F1000F5A46534606DA00F0A2
:1005D000DFFA3A46434600F0DBFA05E000F066FA3F
:1005E0003A46434600F062FA029A0AB181F00041AD
:1005F000039AC2E90001B3E72DE9FF4F1F468DB012
:10060000D7E901464FF0FF382E2045464FF000094C
:100610000B90B9696D1C0E988847396A82468847E5
:100620000028F6D1BAF1FF3F0AD024F4D064002E9E
:1006300011DDBAF12B0F08D0BAF12D0F0BD102E06A
:10064000404611B08DE744F48064B9696D1C0E9882
:1006500088478246761E6946600501D52D2000E058
:100660002B208DF8000001F1010B0DF1200809E0AD
:10067000B9696D1C0E98884782460F9844F400743F
:10068000761E0560002E02DDBAF1300FF0D00B9916
:100690008A453ED144F0800406E00F99681CA9F118
:1006A000010944F400740860B9696D1C761E0E9847
:1006B000884782463028F0D02BE00B998A4505D137
:1006C000200603D444F08004761E18E0504605F05E
:1006D00073FF08B30DF11301761E44F400748B45CB
:1006E00008D2AAF130000BF8010B200607D5A9F1BA
:1006F000010003E0200602D409F101008146A005B3
:1007000002D50F99681C0860B9696D1C0E9888475E
:100710008246002ED1DC53E0002E51DDBAF1650F88
:1007200002D0BAF1450F4BD1A00549D5B9696D1C6E
:1007300024F44074761E0E9888478246002E0CDD05
:100740002B2804D0BAF12D0F07D144F48074B96975
:100750006D1C0E9888478246761EE00501D52D2136
:1007600000E02B2108F8011BCDF82C8021E00DF1D1
:100770002901761E44F4007488450CD2AAF1300099
:1007800010F0FF0088F8000002D10B99884509D9C4
:1007900008F1010806E0E00501D5244801E042F235
:1007A0000F708146B9696D1C0E98884782460F9874
:1007B0000560002E04DD504605F0FEFE0028D6D16F
:1007C000F9690E988847FF208BF8000088F8000030
:1007D0000020069007904B466A4608A906A8FFF736
:1007E00077FEA00502D46FF001002AE714F0240F71
:1007F0000AD0E00714D1DDE906123868031D3B601A
:100800000068C0E900120BE0DDE9060100F06CFAB7
:100810000146E00704D13868021D3A6000680160B3
:1008200028460EE7000014400000F03FF1D8FFFF1B
:1008300000F0004230F000400AD0C10D01F56071B7
:10084000C0F3160042EA0151C20840071143704745
:1008500000200146704730B50B460146002020229B
:10086000012409E021FA02F59D4205D303FA02F5BD
:10087000491B04FA02F52844151EA2F10102F1DC1D
:1008800030BD202A04DB203A00FA02F10020704734
:100890009140C2F1200320FA03F3194390407047BE
:1008A000202A04DB203A21FA02F00021704721FAC5
:1008B00002F3D040C2F1200291400843194670472C
:1008C0003A2800D2303820F02002412A01D3A2F188
:1008D0003700884201D34FF0FF307047026811445F
:1008E0001378016018467047D1600449516104498A
:1008F000116200211161114600F036BADD080008CE
:1009000051020008426842B1016811F8013B23B16D
:10091000521EC0E90012184670470121C160881EAE
:10092000704742685AB1C368016843B983688B4213
:1009300005D0491E521CC0E90012002070474FF03C
:10094000FF3070477CB50023CDE90033054668468B
:1009500000F0BBFB6946284605F04EFD7CBD2DE945
:10096000FE4F804681EA0300C00F0C46009021F044
:10097000004123F00045B8EB0200A94105D24046F2
:10098000214690461C460B46024623F00040104389
:1009900047D0270DC7F30A00C3F30A510290401A4B
:1009A000019040286BDAC3F3130040F4801B0098D9
:1009B000924620B10023D2EB030A63EB0B0B0198A4
:1009C0005946C0F140025046FFF75BFF06460D4610
:1009D00050465946019A00F0B5F910EB0800614104
:1009E000002487EA115284EAE7731A4340D0009A40
:1009F00062B3019A012A4FEA075215DC001B61EB32
:100A000002014FF0004202EA0752CDE90042001C09
:100A100041F5801132462B4600F0D0FB03B0BDE813
:100A2000F08F40462146F9E7001B61EB0201001CF4
:100A300041F5801300185B412018A2F5001747EB21
:100A4000030140EAD570B6196D4111E06D084FEA17
:100A5000360645EAC0754FEA0752001B61EB0201FA
:100A6000001C41F5801149084FEA3000001951413E
:100A700032462B4603B0BDE8F04F00F090BB009823
:100A8000012240000023D0EB020263EBE0730098E8
:100A900021464FEAE074B8EB000061EB0401E9E79E
:100AA00083F000435BE781F0004158E72DE9FE4FFA
:100AB00081EA030404F0004421F0004100944FF067
:100AC000000B23F0004350EA01045ED052EA030415
:100AD0005BD0C3F30A54C1F30A552C44A4F2F33497
:100AE0000194A0FB0254C1F3130141F48011C3F33C
:100AF000130343F4801301FB024400FB034E840AFA
:100B0000970A44EA815447EA8357A4FB0768029591
:100B10008D0A05FB07854FEA932C04FB0C5427052F
:100B2000029D4FEA065847EA1637B5EB08056EEB0B
:100B3000070C870E920E47EA811742EA8312A7FB41
:100B40000201B6EB0B0164EB00042B0D43EA0C33FE
:100B50005E1844EB1C50DA465146E7FB0201C5F330
:100B600013044FEA0B3343EA14534FEA0432019C57
:100B700043EA0603A4F10C040294009CCDE900B4FE
:100B800000F01CFB03B0BDE8F08F00200146F9E740
:100B90002DE9F04D81EA030404F0004B21F00045FB
:100BA00014464FF0000A23F0004150EA050220D01D
:100BB00054EA01021DD0C5F30A570246C5F31303D8
:100BC000C1F31300C1F30A5640F4801543F48013B7
:100BD000A7EB0608101BD64608F2FD3873EB05009C
:100BE00002D308F1010801E092185B41B8F1000F4F
:100BF00003DA00200146BDE8F08D00204FF480119B
:100C0000064684460EE0171B73EB050705D3121B3F
:100C100063EB050306434CEA010C49084FEA300038
:100C200092185B4150EA0107EDD152EA030012D05D
:100C300082EA040083EA0501084305D0101BAB419A
:100C400006D20122002306E000224FF0004302E01A
:100C50006FF0010253101AEB06004CEB085110EB39
:100C60000A0041EB0B01BDE8F04D00F098BA0EB55B
:100C700040F2334202920022CDE90022134600F0F6
:100C80009DFA03B000BDC1F30A52C1F3130140F253
:100C9000FF3341F480119A4202DA00200146704786
:100CA00040F233439A42A2F2334202DC5242FFF74F
:100CB000F7BDFFF7E6BD000030B5041E71F100047A
:100CC00004DB4FF00044404264EB0101141E73F159
:100CD000000405DB1C464FF00043524263EB040363
:100CE000994208BF904230BD01F0004330B421F07A
:100CF000004150EA010206D00A0DA2F56072C1F36C
:100D00001301002A02DC30BC00207047440F44EA83
:100D1000C104C100E01830BC00EBC25000F008BABA
:100D2000064C074D06E0E06840F0010394E8070038
:100D300098471034AC42F6D3FFF73CFA9079030899
:100D4000B0790308202A06DBCB17203A41FA02F0DB
:100D500043EAE07306E041FA02F3D040C2F1200218
:100D600091400843194670472DE9F34F8BB04FF07F
:100D7000000801F10C000C464FF0010B46460DF146
:100D8000080A01906269012101989047051E2DD043
:100D9000252D2CD0216A8847C0B1626901210198B4
:100DA0009047216A88470028F7D1411E626901985F
:100DB000904700E0761CA1690B988847216A884714
:100DC0000028F7D1E1690B988847DBE7A1690B9808
:100DD00088470746A84201D1761CD3E7E1690B9802
:100DE00088477F1C02D1B8F1000F6FD046E1002781
:100DF00062693D463946019890472A2804D16269C4
:100E00000121019890470125DFF884926269012150
:100E100001989047A0F130010A290AD24F45E5DC3C
:100E200007EB870100EB4107303FDFD445F01005A9
:100E3000ECE7E90601D46FF000476C280AD04C2893
:100E400014D0682815D06A280DD074281CD07A28B0
:100E50001AD01DE062690121019890476C2802D0E8
:100E600045F0040514E045F002050DE045F02005CD
:100E70000AE06269012101989047682802D045F094
:100E8000080505E045F40065626901210198904775
:100E9000C4E9015765283DD019DC58287AD00CDC0C
:100EA000452837D004DC252826D0412831D131E02F
:100EB00046282FD047282CD12CE05B2877D06128FA
:100EC00028D063287CD0642823D15AE0D0E06F2852
:100ED00048D008DC66281DD067281BD0692821D09F
:100EE0006E2816D127E0702845D0732868D0752861
:100EF00047D078280DD14DE0A1690B988847054669
:100F000025283FF469AFE1690B9888476D1C3FF4D1
:100F10006AAFB3E023466A466FF001000B99FFF712
:100F20006BFB9EE045F040006060A80723464FF051
:100F3000000236D43EE0E8077FF447AF2068011D89
:100F400021600068290501D506701BE7290701D536
:100F5000068017E7A90703D5F117C0E9006111E77B
:100F600006600FE745F040006060A80723464FF099
:100F7000080216D41EE040F60E0125EA010060606A
:100F800016E045F040006060A80723464FF00A02D3
:100F900007D40FE045F040006060A80708D523465D
:100FA00010226FF001000B99AFF3008059E007E0C9
:100FB000234610226FF001000B99FFF7E3F950E090
:100FC0004FF000094F464B46632802D05B2806D0FD
:100FD00040E0E80601D40120A06001273AE0626900
:100FE0000121019890475E2805D14FF001096269FF
:100FF000494601989047216939B900210A4653466C
:1010000043F82120491C0829FADBB0B3216969B9EA
:10101000C11700EBD16253110AEB830122F01F02CA
:10102000821A01200B68904003430B606269012122
:10103000019890475D28E8D1B9F1000F09D0002050
:10104000514651F82020D24341F82020401C082866
:10105000F7DB02AB224600976FF001000B99AFF36C
:10106000008000280CDA401C08D1BBF1000F05D02D
:101070004FF0FF300DB0BDE8F08FFFE74046F9E7D5
:10108000E90701D108F1010806444FF0000B79E6A9
:10109000CCCCCC0C0FB4002300B589B00CA90091C6
:1010A0000B996FF00042CB601E4B06931E4B0793CB
:1010B0000423CDE901321D4A089202466B46002006
:1010C000FFF79AFA09B05DF814FB70B586B00646D2
:1010D0004FF0FF300091CDE90101002015460C468C
:1010E00004903246694604A8FFF7D4FF02460498EC
:1010F000211825B108B1084600E020462860049870
:1011000000280DD0002A02DD0098884208D0081B74
:101110000094CDE901043246694604A8FFF7BAFFFE
:1011200006B070BD05090008230900085102000837
:101130000029A8BF7047401C490008BF20F00100EB
:10114000704710B4B0FA80FC00FA0CF050EA0104C9
:1011500004BF10BC704749B1CCF1200421FA04F45B
:1011600011FA0CF118BF012121430843A3EB0C0134
:10117000CB1D4FEA00614FEA102042BF002010BC97
:10118000704700EBC35010440029A4BF10BC704747
:10119000401C490008BF20F0010010BC704710B58A
:1011A000141E73F1000408DA401C41F1000192188A
:1011B0005B411A4301D120F0010010BD2DE9F04D33
:1011C00092469B4611B1B1FA81F202E0B0FA80F288
:1011D00020329046FFF755FB04460F4640EA0A00CE
:1011E00041EA0B0153465A46084313D0114653EACD
:1011F000010019D0C8F140025046FFF751FB0546E7
:101200000E46504659464246FFF73BFB084305D081
:10121000012004E020463946BDE8F08D002005435A
:1012200046EAE0762C4337430A986305E40AA0EBCC
:1012300008000022FD0A44EA47540A3002D5002083
:101240000146E9E7010510196941DDE90845001982
:101250006941BDE8F04DA2E730B5041E71F100040C
:1012600004DB4FF00044404264EB0101141E73F1B3
:10127000000405DB1C464FF00043524263EB0403BD
:101280008B4208BF824230BD0020704710B5014636
:10129000806B026C12F0500F05D0026CD20626D57E
:1012A00000F079FA10BD016C41F40071016401682D
:1012B0008A6812F0405F17D1027EAAB9CA6A12F496
:1012C000700F02D08A6852050ED44A6822F02002BC
:1012D0004A60016C21F480710164016CC90403D47B
:1012E000016C41F00101016400F046FA10BD806B11
:1012F000C26CBDE810400846104710B5806B402115
:101300000164416C41F00401416400F044FA10BDF5
:1013100010B5806B00F03EFA10BD0000014800F0EF
:101320003BBA0000E8000020464910B54A6822F4A4
:1013300040324A604A6843681A434A6001684A6812
:1013400022F480724A6001684A68036942EA032213
:101350004A6001684A6822F040724A6001684A683F
:1013600083681A434A6001688A6822F400628A60CE
:1013700001688A68C3681A438A60816A6FF0706284
:10138000D14201688A6822F070628A6001688A68C6
:101390000CD0836A1A438A6001688A6822F040523E
:1013A0008A6001688A68C36A1A4301E022F04052E9
:1013B0008A6001688A6822F002028A6001688A688D
:1013C000037E42EA43028A6090F8201000290168F7
:1013D0004A680FD042F400624A6001684A6822F409
:1013E00060424A6001684A68174C436A04EB433321
:1013F0001A4301E022F400624A600168CA6A22F4DA
:101400007002CA620168CA6A838B104C04EB0353F2
:101410001A43CA6201688A6822F400728A6001680D
:101420008A6890F8303042EA43228A6001688A680C
:1014300022F480628A6001688A68406942EA8020FA
:10144000886010BD0023014000E0FFFF0000F0FFB6
:101450000146014802F05EB87802002010B5044849
:1014600002F06AF8042801D0012010BD002010BD50
:101470007802002010B500F015F8012801D00120F5
:1014800010BD074802F06EF8044634B94FF400610D
:10149000034801F0E7FE00B10124204610BD000022
:1014A0007802002081B0012000909DF8000001B07A
:1014B0007047000038B50024009313460A460146E1
:1014C000034802F0F3F800B10124204638BD0000C3
:1014D0007802002038B50024009313460A460146DE
:1014E000034802F0D3F900B10124204638BD0000C2
:1014F00078020020FEE70000014800F03BBC00003D
:10150000A4010020014800F035BC0000300100209B
:10151000014800F02FBC000074040020016818236B
:10152000CAB2103AB2FBF3F2054B6FF30901032A7A
:101530009B5CC36500D9091D8165084670470000A2
:101540005C6C030810B5014600208B698A6A4FF075
:10155000C07453B1B3F5005F15D072B1012A0CD03D
:10156000022A0AD0032A09D104E01AB1012A06D0BE
:10157000022A03D1C96AC90100D5012010BDC96A78
:10158000A142FAD010BD002AF7D0012AF2D0022AD7
:10159000F3D0032AF3D010BD30B50468256825F4D4
:1015A00080252560046863608368402B036803D04E
:1015B00099600068C26030BD9A600068C16030BD4B
:1015C000704772B6FEE70022AFF3008010B4844685
:1015D00001200E4B5C7A002C16D1587A1C54587A94
:1015E00003EB8000C0F804C0587A03F1080C00F83F
:1015F0000C20587A421C5A72303008703A204870D9
:101600002F208870CC70002010BC70478807002005
:101610007047000078B50024009490F83C20012A1F
:1016200019D0012280F83C200A6807230568092A9E
:1016300013D9EE680A3A02EB420293409E43EE60F1
:101640000B788A680A3B03EB43039A400368DD6822
:101650002A43DA6010E0022078BD2E6902EB4202D4
:1016600093409E432E610B788A6803EB43039A40B4
:1016700003681D692A431A614A681F23072A13D287
:1016800005686E6B521E02EB820293409E436E63AE
:101690000A8893B20A79521E02EB820293400268D2
:1016A000556B2B43536327E005680D2A12D22E6B2E
:1016B000D21F02EB820293409E432E630B790A886D
:1016C000DB1F92B203EB83039A4003681D6B2A432E
:1016D0001A6311E0EE6A0D3A02EB820293409E43D8
:1016E000EE620B790A880D3B92B203EB83039A40BA
:1016F0000368DD6A2A43DA621B4B0568194A9D427A
:101700000AD10D68122D07D1556825F400055560E2
:10171000556845F48005556005689D421DD1134DFF
:101720000B68AB4201D0112B17D1536823F480030F
:101730005360536843F4000353600968A9420CD115
:101740000B490C4A0968B1FBF2F101EB8101490038
:1017500000E0491E00910029FBD180F83C400020A8
:1017600078BD00000023014000200140120000105D
:101770001C00002040420F00044910B5884204D1EB
:1017800000F0DAF902490120087010BDE8000020DD
:10179000380000207047704770B50446006806683E
:1017A000456816F0020F05F020012AD049B3216CDC
:1017B000C90603D4216C41F400712164816811F0E1
:1017C000405F17D1217EA9B9C16A11F4700F02D010
:1017D000816849050ED4416821F020014160206CE8
:1017E00020F480702064206CC00403D4206C40F08E
:1017F000010020642046FFF7BFFF21686FF0120050
:10180000086016F0040F05F0800132D089B3206C17
:10181000C00603D4206C40F4005020642068816826
:1018200011F4401F1ED1816B11F4401F02D081685A
:10183000490517D44168490514D4816811F0405F07
:1018400010D1217E71B9416821F080014160206C86
:1018500020F480502064206CC00503D4206C40F03C
:10186000010020642046FFF7D3FE21686FF00C00D2
:10187000086016F0010F05F040010FD071B120682B
:101880000068C0070AD0206C40F4803020642046F5
:1018900000F043F821686FF00100086016F0200F97
:1018A00005F080610ED000290CD0606C40F0020081
:1018B000606420686FF0200505602046FFF76BFF2D
:1018C0002068056070BD70B504004FF0000503D0BE
:1018D000206C002610B107E0012070BD204600F00A
:1018E0001DF8666484F83C60206CC00610D4206C3F
:1018F00020F4885040F0020020642046FFF714FDD9
:101900006664206C20F0020040F00100206400E0DA
:10191000012584F83C60284670BD704770B586B0DC
:10192000064614216846FEF7C3FC28493068884201
:1019300049D127480025016841F4807101600068A1
:10194000234900F4807014390590086840F00400C1
:101950000860086800F004000590086840F0010085
:1019600008600868032400F00100059001208DE85C
:1019700031006946174800F081FB20208DE83100D6
:101980006946154800F07AFB154C1448C4E9000577
:101990000015A560C4E90350800060618000C4E9BF
:1019A000060525622046656200F0B4FA08B1FFF72B
:1019B00008FEB463002211461220A66300F0C2FEA6
:1019C000122000F0B1FE06B070BD00000020014002
:1019D0004438024000080240000002401064024007
:1019E00030010020F8B5044600200E46009094F81F
:1019F0003C10012907D0012184F83C1021688B6834
:101A0000DB0702D011E00220F8BD8B6843F0010330
:101A10008B604049404B0968B1FBF3F101EB410198
:101A200000E0491E00910029FBD121688B68DB058D
:101A300003D58B6823F480738B6021688B68DB0788
:101A40005DD0236C40F20165AB4343F480732364A3
:101A50004968490505D5216C21F4005141F48051B4
:101A60002164216CC90404D5616C21F00601616414
:101A700000E0606484F83C00A16B2948274DC863EE
:101A8000A16B28480864A16B2748C86421686FF0DF
:101A9000220008602068416841F080614160206850
:101AA000816841F4807181602168134632464C316F
:101AB000A06B00F099FA68681C49C006206806D03F
:101AC000884224D1816811F0405F13D01FE0884222
:101AD000F8D0174A904203D1D1F80423D206F1D0AE
:101AE000144A904213D1D1F8041301F01F011029B8
:101AF000E8D30CE0816841F08041816007E0206C10
:101B000040F010002064606C40F001006064002030
:101B1000F8BD00001C00002040420F0000230140DF
:101B20008D12000811130008FB120008002001406C
:101B3000002101400022014010B50446002094F825
:101B40003C1001290CD0012184F83C1021688A68DE
:101B500022F001028A6021688A68D20702D01DE063
:101B6000022010BD8A6822F480728A60A16B91F80D
:101B70003520022A07D1084600F0A0F818B1216CE0
:101B800041F04001216421684A6822F080624A6085
:101B9000216C21F4885141F001012164002184F875
:101BA0003C1010BD70B500B3F9B14379012B1ED0C4
:101BB000012646710223037105682C6802F01003A8
:101BC00040F6FE729A409443D1E900210A439A40BC
:101BD00022432A6001680A68C0249C40A2430A602C
:101BE000067100214171084670BD012070BD0220C0
:101BF00070BD70B5040003D02079002510B105E058
:101C0000012070BD6571204600F008F802202071A7
:101C1000256101202071002070BD000070B586B0E4
:101C2000054614216846FEF743FB1F492868884291
:101C300037D11E480026016841F00051016000685C
:101C400000F00050059019481038016841F001017A
:101C500001600068694600F00100059010200090C6
:101C60000320CDE90106124800F008FA124C114891
:101C700020604FF0606060604020C4E9020600010F
:101C80002061400060618000A0614011C4E9070646
:101C90002046666200F03EF908B1FFF792FCAC60A6
:101CA000A56306B070BD00000074004040380240DB
:101CB0000000024088600240A40100202DE9F041AC
:101CC0000446876D00F0FEFA064694F835000025BC
:101CD000022806D08020606584F834500120BDE8D9
:101CE000F0812068016821F01601016020684169D7
:101CF00021F080014161206C08B9A06C20B12068FE
:101D0000016821F0080101602068016821F00101EB
:101D100001600CE000F0D6FA801B052807D92020CE
:101D20006065032084F8350084F83450D7E72068D4
:101D30000068C007EED194F85C103F208840B8607E
:101D4000012084F8350084F834500020C7E790F86B
:101D50003510022903D080214165012070470521FB
:101D600080F835100068016821F001010160002051
:101D7000704700002DE9F84304464FF00009CDF804
:101D8000009063484FF41651A56D0068B0FBF1F761
:101D90002E6894F85C10082000FA01F131420FD04F
:101DA00021680A6852070BD50A6822F004020A600B
:101DB00094F85C108840A860606D40F00100606598
:101DC00094F85C104FF0010808FA01F0304208D096
:101DD00021684969090604D5A860606D40F00200D9
:101DE000606594F85C1004208840304208D0216877
:101DF0000968890704D5A860606D40F0040060653B
:101E000094F85C1010208840304218D0216809688E
:101E1000090714D5A86020680168490304D5006843
:101E2000000308D5A16C07E00168C90503D4016867
:101E300021F008010160216C09B12046884794F81F
:101E40005C1020208840304231D021680968C906E2
:101E50002DD5A86094F8350005282068016806D0C3
:101E6000490347D5006800031DD4616C1CE021F0D4
:101E7000160101602068416921F080014161206CF8
:101E800008B9A06C20B12068016821F00801016048
:101E900094F85C103F208840A86084F8358084F86E
:101EA0003490216D1FE0E16B09B120468847606DD9
:101EB00000282BD0606DC00714D0052084F83500B1
:101EC0002068016821F0010101600098401C009029
:101ED000B84203D820680068C007F6D184F835807E
:101EE00084F83490E16C002910D001B02046BDE8A0
:101EF000F04308470168C905D5D4016821F01001F5
:101F0000016084F8358084F83490CCE7BDE8F8832C
:101F10001C0000202DE9F041044600F0D3F90646EC
:101F20005CB1022084F83500002584F83450206824
:101F3000016821F0010101600DE00120BDE8F081A0
:101F400000F0C0F9801B052805D92020606503201A
:101F500084F83500F2E720680068C007F0D12268F5
:101F6000116820480140D4E901031843D4E903363D
:101F70003343184363691843A3691843E36918435B
:101F8000236A18430843616A042903D1D4E90B1377
:101F900019430843106020684069666A20F0070111
:101FA00030460E43012704280CD1A06A0643E06A9C
:101FB00040B12046FFF7C6FA20B14020606584F8A2
:101FC0003570BAE7206846612046FFF7A7FA94F813
:101FD0005C203F2191408160656584F83570002068
:101FE000ACE700003F8010F02DE9F0410446866D1B
:101FF00090F83400002501280DD0012084F8340029
:1020000094F835700020012F07D084F834000225A1
:102010002846BDE8F0810220FBE7022784F83570EE
:1020200060652046FFF7B8FA94F85C103F208840BE
:10203000B0602068016841F016010160206C20B199
:102040002068016841F0080101602068016841F0E2
:1020500001010160DCE7000070B5044600F032F9D0
:102060000546601C02D004480078044400F02AF9B8
:10207000401BA042FAD370BD100000202DE9F84F9C
:10208000DFF8F8A10022012403254FF00F090AF11F
:10209000040BAAF1040E00BF0B6804FA02F63340E9
:1020A000B34270D10F7907F00307012F01D0022F3F
:1020B00016D187684FEA420805FA08FC27EA0C07A0
:1020C000D1F80CC00CFA08FC4CEA070CC0F808C0A8
:1020D0004768B7430E79C6F3001696403E43466004
:1020E0000E79F643B6070AD0C7684FEA420C05FAE4
:1020F0000CF6B7438E6806FA0CF63E43C6600E79BE
:1021000006F00306022E10D1D60800EB8608D8F898
:10211000206057074FEAD76C09FA0CF7BE430F69E6
:1021200007FA0CF73743C8F8207006684FEA420CEC
:1021300005FA0CF7BE430F7907F0030707FA0CF70F
:10214000374307604E6816F4403F1CD04C4E37684A
:1021500047F480473760366822F0030706F480466C
:102160000096484E07EB060CDCF8086897073F0F0F
:1021700009FA07F826EA0806DFF80C81404503D182
:102180004FF0000841E072E0DFF80081404502D1E5
:102190004FF0010839E0DFF8F880404502D14FF0F8
:1021A000020832E0DFF8EC80404502D14FF003082E
:1021B0002BE0DFF8E480404502D14FF0040824E032
:1021C000DFF8D880404502D14FF005081DE0DFF868
:1021D000D080404502D14FF0060816E0DFF8C480F9
:1021E000404502D14FF007080FE0DFF8BC804045C2
:1021F00002D14FF0080808E0DFF8B080404502D176
:102200004FF0090801E04FF00A0808FA07F848EA19
:102210000608CCF80888DAF800605746D1F804C000
:102220009E435FEACC2C00D51E433E60DBF8006085
:102230005F46D1F804C09E435FEA8C2C00D51E4354
:102240003E60DEF800607746D1F804C09E435FEA46
:102250008C3C00D51E433E60084F083F3E68D1F8D5
:1022600004C09E435FEACC3C00D51E433E60521C36
:10227000102AFFF411AFBDE8F88F0000083C0140C0
:102280004438024000300140000002400004024097
:1022900000080240000C02400010024000140240FE
:1022A00000180240001C02400020024000240240AE
:1022B0000069084000D0012070470AB18161704771
:1022C0000904FBE701488068704700001000002007
:1022D00090F83D20202A01D002207047242280F867
:1022E0003D200268136823F0010313600268536AFB
:1022F00023F0100353620268536A0B435362016870
:102300000A6842F001020A60202180F83D10002096
:10231000704790F83D20202A01D0022070472422E7
:1023200080F83D200268136823F0010313600368FE
:102330005A6A22F00F020A4391B2596201680A6890
:1023400042F001020A60202180F83D100020704711
:1023500070B5040025D094F83D00002520B984F81C
:102360003C50204600F050F9242084F83D002068BD
:10237000016821F0010101602068016841F4004119
:1023800001602068016821F40041016000F0D0FB89
:102390004D4A6168914201D84C4900E04C4988425D
:1023A00001D2012070BD4B492368B0FBF1F15E689A
:1023B00026F03F060E435E606368934206D94FF4F1
:1023C000967359434FF47A73B1FBF3F12368491CB8
:1023D0001E6A26F03F06314319626168914210D8A7
:1023E0004900401EB0FBF1F2521CC2F30B02042A5A
:1023F00001D2042022E0B0FBF1F0401CC0F30B003E
:102400001CE0A268F2B301EBC10303EB0116431E0B
:10241000B3FBF6F35B1C43F480431B0549D092B336
:1024200001EBC10202EB0111401EB0FBF1F0401CB8
:10243000C0F30B0040F4804040F400402168CA69BA
:102440004CF6FF739A431043C861D4E90710014367
:102450002068026822F0C00211430160D4E9030140
:1024600001432068826848F2FF339A431143816038
:10247000D4E9050108432168CA6822F0FF0210432D
:10248000C86001E00EE016E02068016841F001013B
:1024900001602564202084F83D00256384F83E50C7
:1024A000002070BD01EB4106431EB3FBF6F35B1C3D
:1024B000B3E70120C2E701EB4101401EB0FBF1F0A0
:1024C000401CC0F30B00B7E7A086010080841E000B
:1024D00000093D0040420F002DE9FF4F83B09A46AE
:1024E000DDE9119793460446DDF84080FFF7EAFEE8
:1024F000054694F83D0020287FD119230122404948
:102500002046009502F090F9002876D194F83C001E
:10251000012872D0012084F83C0020680168C907B6
:1025200003D1016841F0010101602068016821F4D4
:1025300000610160212084F83D00402084F83E00C5
:1025400000262664C4F82480A4F82A90608D208593
:102550002C48E062CDE9007553465A46204604995E
:1025600002F0E2F870B930E02A463946204602F01F
:1025700001FA58B1206C042804D12068016841F4A4
:1025800000710160012007B0BDE8F08F606A21682A
:1025900000780861606A401C6062218D491E89B222
:1025A0002185628D521E628522685369DB435B0779
:1025B0000BD469B100781061606A401C6062208DA4
:1025C000401E2085608D401E6085208D0028CBD167
:1025D0002A463946204602F0FBF80028CAD154F8B2
:1025E0003D0B016841F400710160202004F81E09D0
:1025F000E67766770020C6E7FFE70220C3E7000022
:10260000020010000000FFFF10B586B00446142140
:102610006846FDF74DFE14492068884221D11348D1
:102620000021026842F002020260006800F002002D
:1026300005904FF4407000901220CDE90101032075
:1026400003900420049069460948FFF717FD0748E6
:102650001030016841F400110160006800F40010BE
:10266000059006B010BD0000005400403038024014
:10267000000402400248816802781144816070477A
:10268000100000200B4810B5016841F40071016092
:10269000016841F480610160016841F4807101606A
:1026A000032000F06FF8002000F006F800F024F896
:1026B000002010BD003C024070B50D4D04464FF4A3
:1026C0007A712878B1FBF0F00A490968B1FBF0F0A3
:1026D00001F040FB48B9102C07D200222146501EC1
:1026E00000F030F800206C6070BD012070BD00006B
:1026F000100000201C0000200A4808B5016841F4C1
:1027000080410160006800F4804000900548001F8F
:10271000016841F080510160006800F08050009035
:1027200008BD000044380240002809DB00F01F0209
:10273000012191404009800000F1E020C0F8001123
:1027400070470000F0B40E4B1B680C46C3F3022325
:10275000C3F10705042D00D90425191D072901D24D
:10276000002300E0DB1E012606FA05F1491E214088
:1027700099409E40761E16403143F0BC03F09EBD4A
:102780000CED00E0064900F0070208684FF6FF0371
:10279000184040EA0220034A1043086070470000D6
:1027A0000CED00E00000FA052DE9F84F0446006842
:1027B000DFF824A2894F8A4DC1074FF001084FF07E
:1027C000000603D1810701D4400648D5CAF86860E5
:1027D000FFF778FD814605E0FFF774FDA0EB0900E7
:1027E00002287DD828680001F6D42078C1077D48EA
:1027F00005D06168227A890141EA0271016021787D
:10280000890711D501686268237B9201C1F30271C7
:1028100042EA036242EA017101603968E26921F02B
:102820001F01521E114339602178490608D561689D
:10283000227B890141EA0261227A41EA0271016048
:10284000CAF86880FFF73EFD814605E0FFF73AFDD4
:10285000A0EB0900022843D828680001F6D52068BB
:10286000410701D400074ED5CAF87060FFF72AFD72
:10287000814605E0FFF726FDA0EB090002282FD8CE
:102880002868C0438000F5D520784107564814D504
:1028900001682269237D9201C1F3027142EA036259
:1028A00042EA017101603968226A6FF0FF0321F486
:1028B000F85103EB0222114339602178090712D540
:1028C00001682269C1F30361920142EA0161227E3B
:1028D00041EA027101603868616A20F4403000E02A
:1028E00051E008433860CAF87080FFF7EBFC0746F8
:1028F00005E000BFFFF7E6FCC01B022843D82868AC
:10290000C0438000F6D42078800653D53448403048
:10291000016841F0805101600068344D00F0805042
:102920000090286840F480702860FFF7CBFC0746D1
:1029300005E000BFFFF7C6FCC01B022823D82868AB
:10294000C005F7D5274D143D286810F4407020D0FD
:10295000218D01F4407181421BD0286820F4407120
:102960002348C0F80080066029602868C00710D09E
:10297000FFF7A8FC064641F2883707E0FFF7A2FC04
:10298000801BB84202D90320BDE8F88F2868800771
:10299000F4D5A16A1248C1F301220830032A13D0EA
:1029A000016821F4F81101602868218DC1F30B0141
:1029B000084328602078C00604D50E4994F82C00FE
:1029C000C1F8E0010020DFE702680B4B22F4F812A7
:1029D00019400A430260E7E7000047428C38024092
:1029E00000380240843802408838024000700040BD
:1029F000400E474200104742FFFCFF0F2DE9F04711
:102A00000E46050065D0DFF81481D8F80000F7B253
:102A100000F00F00B04207D288F80070D8F800002C
:102A200000F00F00B04254D128683D4C810712D508
:102A3000400703D5206840F4E05020602878000764
:102A400003D5206840F4604020602068A96820F029
:102A5000F000084320602878C0072DD0304968680E
:102A60000839012812D0022813D0032811D0096890
:102A7000890700292DDA216821F003010143216033
:102A8000FFF720FC814641F2883A0EE0096889038D
:102A9000EFE709688901ECE7FFF714FCA0EB0901F7
:102AA000514502D90320BDE8F0872068696800F02D
:102AB0000C00B0EB810FEFD1D8F80010404601F0C8
:102AC0000F01B14207D90770006800F00F00B04253
:102AD00001D00120E7E72878400705D52068E9689C
:102AE00020F4E050084320602878000706D52068CD
:102AF000296920F4604040EAC100206000F038F805
:102B00002168084AC1F30311515CC84006490860B6
:102B100006480068FFF7D0FD0020C4E7003C0240F3
:102B200008380240646C03081C00002014000020D8
:102B30000448054900680968044AC1F38221515CD0
:102B4000C84070471C00002008380240746C03081D
:102B50000448054900680968044AC1F34231515CE0
:102B6000C84070471C00002008380240746C0308FD
:102B7000154810B5006810F00C02144813D0144921
:102B8000042A0FD0082A0ED10F4C241F2268236874
:102B900002F03F025B0207D52068C0F38810A0FB5B
:102BA000010106E0084610BD2168C1F38811A1FBB0
:102BB00000010023FDF716FB2168C1F30141491C08
:102BC0004900B0FBF1F010BD083802400024F400C9
:102BD00040787D012DE9F84F04006ED02078DFF8B1
:102BE0004C93C007A9F104054AD009F1040001681B
:102BF000C1F38101012908D00068C0F381000228D7
:102C00000AD1D9F80000400206D52868800337D5DC
:102C100060680028E1D033E06068B0F5803F10D0F4
:102C2000B0F5A02F286810D020F4803028602868E4
:102C300020F4802028606068A8B1FFF743FB0646B7
:102C40000DE0286840F48030F4E740F480202860EC
:102C5000F7E700BFFFF736FB801B642873D82868AE
:102C60008003F7D50CE0FFF72DFB064605E000BF1B
:102C7000FFF728FB801B6428F0D828688003F7D46E
:102C80002078DFF8AC8280074FF0000A3ED5A748D5
:102C9000001D016811F00C0F08D00068C0F381001E
:102CA00002280BD1D9F80000400207D42868800719
:102CB00016D5E068012800D112E033E1E068B8B130
:102CC0000120C8F80000FFF7FDFA064605E000BF46
:102CD000FFF7F8FA801B0228C0D828688007F7D5CC
:102CE0002868216920F0F80040EAC10028600DE062
:102CF000C8F800A0FFF7E6FA064604E0FFF7E2FA9C
:102D0000801B02281FD828688007F7D42078000786
:102D100022D5864F87486169703771B10121016002
:102D2000FFF7D0FA064604E0FFF7CCFA801B022832
:102D300009D838688007F7D50EE0C0F800A0FFF783
:102D4000C1FA064605E082E0FFF7BCFA801B0228C4
:102D50007DD838688007F7D42078400768D5DFF839
:102D6000CCB100270BF13C0BDBF80000C0000BD40A
:102D7000DBF8001041F08051CBF80010DBF80000C8
:102D8000012700F0805000906B4E3068C00510D4D1
:102D9000306840F480703060FFF794FA009005E0EE
:102DA000FFF790FA0099401A022850D83068C00501
:102DB000F6D55E4EA0686C3601280FD00528306825
:102DC00010D020F001003060306820F00400306046
:102DD000A068B8B1FFF776FA00900FE0306840F0D5
:102DE0000100F4E740F004003060F7E7FFF76AFA0B
:102DF0000099411A41F28830814266D830688007D4
:102E0000F4D50EE0FFF75EFA009007E0FFF75AFAFC
:102E10000099411A41F28830814256D830688007C3
:102E2000F4D42FB1DBF8001021F08051CBF8001062
:102E3000A069C8B33D49091D0968C1F38101022990
:102E40004AD00228504607D0C8F8600000E03CE0B5
:102E5000FFF738FA04463BE04746C8F86000FFF742
:102E600031FA064605E000BFFFF72CFA801B022866
:102E70002BD828688001F7D4D4E907010843A16A58
:102E80002E4A490802EB0141626A41EA8211084375
:102E900094F82C1040EA0161C9F80010012038664E
:102EA000FFF710FA044606E03EE000BFFFF70AFA1B
:102EB000001B022809D828688001F7D534E000BF3C
:102EC000FFF700FA001B022802D90320BDE8F88FA3
:102ED00028688001F4D427E00128F7D0D9F8000051
:102EE000E26900F4800191421CD1226A00F03F01A6
:102EF000914217D147F6C071626A0140B1EB821F5F
:102F000010D1A26A4FF0FF3300F4403103EB5202BC
:102F1000B1EB024F06D194F82C1000F07060B0EBCA
:102F2000016F01D00120D1E70020CFE70438024033
:102F300000004742800E4742007000400000FFFF43
:102F40000068503050F8210070470068503040F859
:102F50002120704710B500680B4641680D480140BC
:102F6000080CD870C1F304245C7001F03F049C701D
:102F7000C1F34231197052B902F05BF8D870587839
:102F800002F057F85870987802F053F898700020C3
:102F900010BD00003FFFFF0010B50B460168896AB5
:102FA000596001680969C1F30E0199600068016800
:102FB0000D480140C1F305401870C1F306245C7050
:102FC00001F07F049C70890DD97052B902F031F87C
:102FD0001870587802F02DF85870987802F029F897
:102FE0009870002010BD00007F7F7F0010B50400A6
:102FF00002D0607F10B106E0012010BD00202077D4
:10300000204600F041F8022060772068C168C9437B
:10301000C90632D5CA214162216853204862204640
:1030200002F01CF820BB20688168164A11408160BC
:103030002168886862681043D4E904231A43104366
:1030400088602168E068086120680169228941EA96
:1030500002410161204602F025F848B921680A6C56
:1030600022F480220A6421680A6CA3691A430A6464
:103070002268FF21516208B110BD00200121617753
:1030800010BD0000BFFF8FFF10B58CB0044630218B
:103090006846FDF70DF90C492068884211D12020BF
:1030A0000090C0000A906846FFF77EFB08B1FEF76B
:1030B00088FA0648016841F00101016004490120D5
:1030C00008600CB010BD00000028004070380240BD
:1030D0003C0E474270B50446007F0B46012819D0CC
:1030E0000126267702206077B2B19878D97840EA35
:1030F000014558781978000240EA413005432168BB
:10310000CA204862216853204862204601F0A6FF89
:10311000D0B122E0022070BD5878C10603D500F07E
:10312000EF000A305870D87801F08CFF020458780C
:1031300001F088FF42EA0022987801F083FF024301
:10314000187842EA4035DAE70748054020684560CC
:10315000204601F0A7FF00B966772268FF2151627F
:103160000021217770BD00003FFFFF002DE9F041F5
:103170000446007F0D46012823D04FF0010884F853
:103180001C80022060772068002780684FEA40603A
:10319000D2B1002800DBEF70A878297840EA014618
:1031A0006878E978000240EA815006432168CA2025
:1031B0004862216853204862204601F04FFFB8B1B1
:1031C0002CE00220BDE8F081002800DBEF702878B9
:1031D00001F038FF0204687801F034FF42EA00226F
:1031E000A87801F02FFF0243E87842EA8056DDE735
:1031F0000D480640206806602068816821F480211F
:103200008160D5E90301084321688A68104388601A
:10321000204601F047FF08B984F81D802268FF218D
:1032200051622777CEE700007F7F7F0070B50446AC
:103230000B482168C860FFF745F805464FF47A76D9
:1032400007E000BFFFF73EF8401BB04201D9032062
:1032500070BD2068C0688006F4D5002070BD0000F5
:103260005F7F01002DE9FE430446002603200D4642
:1032700084F83400606C03285ED0B5F5805F5BD0C5
:103280004FF4006700204FF08068BD421FD1814697
:10329000009001900021206801F02FFF800113D4DD
:1032A0006946204602F066FA07000DD101984003F6
:1032B00034D5B4F850000104206801F04FFF070036
:1032C00002D10221206823E0A06B384328E01DB121
:1032D000A06B40F0006023E0814600900190002147
:1032E000206801F00AFF8001EED46946204602F012
:1032F00041FA0700E8D10198C0030FD5B4F8500097
:103300000104206801F02AFF0700DDD100212068B8
:1033100001F071FF0700D7D14F46D5E74746D3E705
:10332000A063A06B144F4FF0010848B12068876379
:1033300084F8348001260EE0A06B40F08050EFE767
:10334000211DD4E9050C0EC9CDE90050CDF808C007
:10335000206801F0D5FE4FF40071206801F032FFC3
:1033600028B121688F63A16B0143A163012684F812
:1033700034803046BDE8FE83FF054000F0B5426E64
:10338000920F0A70426EC2F383624A70426EC2F3B9
:1033900001628A70426E120CCA70B0F86420120A80
:1033A0000A7190F864204A71826E120DCA80826E92
:1033B000C2F303420A72B0F86820C2F3C0324A7204
:1033C000B0F86820C2F380328A72B0F86820C2F385
:1033D0004032CA72B0F86820C2F300320A73002685
:1033E0004E73426C4FF40075012462B1012A3AD049
:1033F000026847499163816B41F08051816380F895
:1034000034400120F0BDB0F86820C36E9205120D63
:1034100042EA93720A61C26EC2F3C2620A75C26E58
:10342000C2F302624A75C26EC2F342528A75C26E1C
:10343000C2F38242CA75C26EC2F3C2320A760A6908
:10344000521C42650B7E03F007039B1C9A404265A9
:103450000B7A03F00F0704FA07F383655B0A5A43FC
:10346000C0E917250EE090F86820C36E9206920A14
:1034700042EA13420A610A69521C92024265C0E99B
:103480001652056630F86C2FC2F3803201F8192FFE
:103490000288C2F3C6124A70027802F07F028A7074
:1034A0004268D20FCA704268C2F341720A71426820
:1034B000C2F382624A714268C2F383528A714268DF
:1034C000C2F34052CA710E724268C2F300424A729D
:1034D0008288C2F3C0328A728288C2F38032CA7292
:1034E0008288C2F340320A738288C2F300324A7380
:1034F0008288C2F381228A738288C2F30122CA734E
:103500000079C0F3460008744C740020F0BD000040
:10351000FF054000426C0A60826C4A60C26C8A609F
:10352000026DCA60426D0A61826D4A61C26D8A6134
:10353000006EC8610020704770B50446B0F85000B6
:1035400000250104206801F03EFF18B1A16B014382
:10355000A16304E00021206801F0CFFD0546C5F31A
:10356000432070BD70B504000ED094F834000025DF
:1035700018B92577204600F04FF8032084F834006E
:10358000204600F00BF808B1012070BDA56325634B
:10359000012084F83400002070BD0000FEB5002535
:1035A000044676200095CDE9015029460B460A468F
:1035B000206801F0A5FD48BB154E46F8A05F2068C5
:1035C00001F0B0FD012535600220FEF745FD2046E3
:1035D00002F0B8F930B100BF84F83450A16B014358
:1035E000A16313E0204602F035F90028F4D14FF42E
:1035F0000071206801F0E6FD002808D02268054926
:103600009163A16B0143A16384F834500120FEBD96
:1036100000802542FF054000F0B587B00446142124
:103620006846FCF745FE1D492068884233D11C4896
:103630000024016841F400610160006800F400604A
:10364000059017481438016841F0040101600168D1
:1036500001F004010591016841F008010160006872
:10366000022500F0080005904FF4F850CDE9000560
:1036700002AA03260C2782E8D00069460948FEF713
:10368000FDFC0420CDE9000502AA694682E8D000CD
:103690000548FEF7F3FC07B0F0BD0000002C014028
:1036A0004438024000080240000C02402DE9F04F6F
:1036B00087B09B4616460D460446FEF703FE009073
:1036C0003DB194F83400012807D0A06B40F00050C1
:1036D0000DE0A06B40F0006009E00020A063E26D07
:1036E00006EB0B01914204D9A06B40F00070A0637F
:1036F0008AE0032184F834102168C862616C0129D2
:1037000000D076024FF0FF3101914FEA4B21029138
:103710004FF0010803AA902102278146CDF81880B6
:1037200082E8820201A9206801F0D1FCBBF1010FFF
:1037300005D927633146206801F0B6FD05E0C4F8DD
:1037400030803146206801F0C8FDDFF83CA130B17F
:103750002268C2F838A0A16B0143A16350E0029E29
:103760001FE0406B000413D596B10027206801F0DC
:10377000DDFC05F8010B010A05F8011B010C05F839
:10378000021B000E361F7F1C05F8010C082FEDD31D
:10379000FEF798FD01460098091A1098814220D240
:1037A000F8B12068426B40F22A310A42D9D0416B0D
:1037B000C90509D5BBF1010F06D9616C032903D0F6
:1037C00001F032FE0028C3D12068416B090702D402
:1037D000416B89051AD5C0F838A0A06B40F00800ED
:1037E00050E02168C1F838A0A06B40F00040A06311
:1037F00084F83480C4F83090032007B0BDE8F08F1F
:1038000084F83480C4F830900120F6E7416B8907D2
:1038100005D5C0F838A0A06B40F0020032E0416B43
:1038200089061BD5C0F838A0A06B40F0200029E025
:1038300001F07CFC05F8010B010A05F8011B010CE5
:1038400005F8021B000E05F8010C361FFEF73AFDC5
:103850000099411A109881420ED268B12068416BDC
:10386000890201D5002EE3D1216840F23A508863E5
:1038700084F834800020C0E72168C1F838A0A06B2C
:1038800040F00040A063BBE7FF0540002DE9F04F8A
:103890008DB09B4616460D460446FEF713FD0A9072
:1038A0003DB194F83400012807D0A06B40F00050DF
:1038B0000DE0A06B40F0006009E00020A063E26D25
:1038C00006EB0B01914204D9A06B40F00070A0639D
:1038D0007AE0032184F834102168C862616C012900
:1038E00000D076024FF0FF3103914FEA4B21049153
:1038F0009021CDE905104FF00109CDE90709824675
:1039000003A9206801F0E3FBBBF1010F06D92020D9
:1039100020633146206801F0A1FD05E010202063FE
:103920003146206801F0B3FD5FEA000806D0216847
:1039300041488863A06B40EA080074E0049E27E0D9
:10394000406B40041CD5DEB15FF0000715F8010B99
:10395000009015F8011B361F40EA0120009015F871
:10396000021B40EA0140009015F8011C40EA01608A
:1039700000906946206801F0ECFB7F1C082FE5D31E
:10398000FEF7A0FC0A99411A1698814220D2F8B19C
:103990002068416B40F21A321142D1D0416BC90507
:1039A00023D5BBF1010F20D9616C03291DD001F093
:1039B0003BFDD0B1226820499163A16B0143A16313
:1039C00084F83490C4F830A001200DB0BDE8F08F29
:1039D000216819488863A06B40EA0800A06384F856
:1039E0003490C4F830A00320EFE72068416B09074A
:1039F00002D4416B890505D50F498163A06B40F066
:103A0000080010E0416B890705D50B498163A06B65
:103A100040F0020007E0416BC90606D50649816304
:103A2000A06B40F01000A063CAE740F23A518163F6
:103A300084F834900020C8E7FF05400070B504000A
:103A400009D0606A002540B125616561A56294F8DE
:103A5000510040B10CE0012070BD6068B0F5827F7C
:103A6000F4D0E561F2E784F85050204600F044F8C5
:103A7000022084F851002068016821F040010160B3
:103A8000A088218900F4827001F404410843A189CF
:103A900001F400610843217C01F002010843217D0B
:103AA00001F001010843218B01F400710843217FDB
:103AB00001F03801084394F8201001F08001084318
:103AC000218D01F40051084321680860A069042198
:103AD00001EA104094F8241001F010010843216815
:103AE00048602068C16921F40061C16165650120F9
:103AF00084F85100002070BD10B586B00446142132
:103B00006846FCF7D5FB14492068884221D1134848
:103B10000021026842F480420260006800F48040A4
:103B200005900E481038026842F0020202600068F8
:103B300000F0020005904FF4604000900220CDE9B3
:103B40000101032003900520049069460448FEF714
:103B500095FA06B010BD0000003800404038024021
:103B6000000402402DE9FF4F81B01D4693460446F4
:103B70004FF001090E9EFEF7A5FB074694F8510091
:103B80006168012806D0B1F5827F3CD1A168C9BB2C
:103B9000042838D10298002871D0BBF1000FFBD067
:103BA000002DF9D094F8500001282CD04FF0010AD4
:103BB00084F850A094F85100042802D0052084F81D
:103BC00051004FF00008C4F85480C4F838B0E587BD
:103BD000A58702992163E586A586C4F84080C4F8CC
:103BE000448020680168490603D4016841F040011F
:103BF0000160E068B0F5006F606808D0F0B3012D97
:103C000049D081E0FFE7022005B0BDE8F08F08B1A0
:103C1000012D39D1206B21680088C860206B801C81
:103C20002063E08E401EE0862EE0206881688907D0
:103C30000FD5E18E69B1B9F1010F0AD1216B098865
:103C4000C160206B801C2063E08E401EE0864FF038
:103C5000000920688168C9070CD0E18F51B1C068A4
:103C6000A16B0880A06B801CA063E08F401EE087E2
:103C70004FF00109FEF726FBC01B01E00BE067E0F7
:103C8000B04201D3701C50D1E08E0028CDD1E08F1E
:103C90000028CAD13EE0206B216800780873206BB1
:103CA000401C2063E08E401EE0862DE02068816885
:103CB00089070FD5E18E69B1B9F1010F0AD1216BE6
:103CC00009780173206B401C2063E08E401EE08663
:103CD0004FF0000920688168C9070CD0E18F51B10D
:103CE000C068A16B0870A06B401CA063E08F401EF1
:103CF000E0874FF00109FEF7E5FAC01BB04202D39E
:103D0000701C01D011E086B1E08E0028CED1E08F8A
:103D10000028CBD13A463146204601F0D3FE50B1BF
:103D20002020606584F8508012E084F851A084F867
:103D30005080032068E7A06818B92068C1688068CF
:103D4000009084F851A084F85080606D0028F1D074
:103D5000012059E710B5401EB0F1807F01D301204A
:103D600010BD4FF0E02460610F21601702F0A6FA49
:103D70000020A06107202061002010BD704770471F
:103D800070B590F83C20012A32D0012480F83C40E4
:103D9000022280F83D2003685A689D6822F0700670
:103DA0000A6832435A60134B02689A4214D0B2F147
:103DB000804F11D0104B9A420ED0104B9A420BD02C
:103DC0000F4B9A4208D00F4B9A4205D00E4B9A42A5
:103DD00002D00E4B9A4204D1496825F08003194362
:103DE000916080F83D40002180F83C10084670BD8D
:103DF000022070BD000001400004004000080040A7
:103E0000000C004000040140004001400018004048
:103E100010B5040003D094F83D0010B107E0012074
:103E200010BD002084F83C00204600F01FF802205E
:103E300084F83D00211D206801F036FF012084F840
:103E4000460084F83E0084F83F0084F8400084F87F
:103E5000410084F8420084F8430084F8440084F868
:103E6000450084F83D00002010BD000008B5174A49
:103E700001681748914207D1016841F002010160D1
:103E8000006800F0020009E0124A914208D101687E
:103E900041F010010160006800F01000009008BDC2
:103EA0000D4A9142FBD1016841F4807101600068C4
:103EB000002200F48070009011462D20FEF742FC95
:103EC000BDE808402D20FEF72FBC00000004004094
:103ED00040380240001000400020004090F83D10A3
:103EE000012901D001207047022180F83D100068AF
:103EF0001149884214D0B0F1804F11D00F49884247
:103F00000ED00F4988420BD00E49884208D00E4986
:103F1000884205D00D49884202D00D49884204D11B
:103F2000816801F00701062903D0016841F0010111
:103F300001600020704700000000014000040040C4
:103F400000080040000C0040000401400040014017
:103F50000018004070B5044690F83C000025012888
:103F600017D0012684F83C60022084F83D002068C8
:103F7000826822F0770222F47F428260086850282B
:103F800038D00DDC20284FD005DC90B3102811D19B
:103F90004AE0022070BD302846D040280AD13BE0DC
:103FA00060282FD070280DD0B0F5805F03D0B0F519
:103FB000005F12D0012584F83D60002084F83C00A9
:103FC000284670BDCB68D1E90121206801F0D8FEF8
:103FD0002068816841F0770109E0CB68D1E90121CF
:103FE000206801F0CDFE2068816841F48041816045
:103FF000E1E719E0CA684968206801F0D3FE502162
:10400000206806E0CA684968206801F0DCFE60218B
:10401000206801F0BFFECEE7CA684968206801F059
:10402000C1FE40212068F4E7226801461046F0E70F
:1040300070472DE9F04104460068C66805694FF0F5
:104040000007A90713D5B10711D5F91E0161012099
:104050002077206880698007204602D0FFF7E8FFBC
:1040600004E000F07EF8204600F07CF8277768072F
:1040700016D5700714D521686FF00400086102207E
:1040800020772068806910F4407F204602D0FFF737
:10409000CFFF04E000F065F8204600F063F82777D2
:1040A000280715D5300713D521686FF0080008617F
:1040B000042020772068C0698007204602D0FFF7DF
:1040C000B7FF04E000F04DF8204600F04BF82777EA
:1040D000E80616D5F00614D521686FF010000861C7
:1040E000082020772068C06910F4407F204602D065
:1040F000FFF79EFF04E000F034F8204600F032F8AD
:104100002777E80708D0F00706D021686FF0010094
:104110000861204600F027F8280608D5300606D5A5
:1041200021686FF0800008612046FFF727FE6806CF
:1041300008D5700606D521686FF04000086120465A
:1041400000F012F8A8060AD5B00608D521686FF06D
:10415000200008612046BDE8F041FFF710BEBDE831
:10416000F081704770477047704738B5044690F843
:104170004200202801D0022038BD61B15AB101208F
:10418000206300206063204601F0CAFF0028F3D1BD
:10419000216B012901D0012038BD21680A684968D6
:1041A000009121680C3151E8002F42F0100241E8E3
:1041B0000023002BF5D138BD10B50C460D4A01681F
:1041C000914216D100F01EF80B49224601F580708D
:1041D00007F01FF880210848FCF76AF8802206499A
:1041E0000648FFF7C2FF06480068016821F0080191
:1041F000016010BD00100140E44800202C040020A4
:104200007404002010B504460068406994F8411019
:10421000C0F3C010212911D180B12068143050E8BA
:10422000001F21F0800140E80012002AF5D1A06BA8
:1042300008B1FDF743FD204601F07DFE206840698E
:1042400094F84210C0F38010222911D180B1206867
:10425000143050E8001F21F0400140E80012002A0D
:10426000F5D1E06B08B1FDF729FD204601F03CFED9
:10427000002010BD70470000F8B5016804460868CA
:10428000CA684B6910F00F0F4FF0000559D003F0CA
:10429000010602F49077374365D0C10705D0D105F8
:1042A00003D5616C41F001016164410705D5D9076F
:1042B00003D0616C41F002016164810705D5D90723
:1042C00003D0616C41F004016164010707D502F07D
:1042D0002001314303D0616C41F008016164616CDD
:1042E00000293AD0800604D5900602D5204601F078
:1042F00030FE20684069616CC0F38010090700D46B
:1043000060B3204601F0F0FD20684069400621D5E9
:104310002068143050E8001F21F0400140E80012EE
:10432000002AF5D1E06BA8B16E490165E06BFDF79D
:104330000EFD002811D0E06B016D01B0BDE8F0402A
:10434000084783060FD593060DD52046BDE8F840F3
:1043500001F0FFBD2046FFF78DFFF8BD2046FFF7B7
:1043600089FF6564F8BD266B2023012E7DD1C6062A
:104370007BD5D60679D508684868009048694FF023
:104380000206400641D5E16B086840680004000C55
:10439000E8D0A28D8242E5D9E085C869B0F5807F7A
:1043A0002DD020680C3050E8001F21F4807140E8C7
:1043B0000012002AF5D12068143050E8001F21F0C7
:1043C000010140E80012002AF5D12068143050E8BD
:1043D000001F21F0400140E80012002AF5D184F8C6
:1043E0004230256320680C3050E8001F21F0100196
:1043F00040E80012002AF5D1E06BFDF75FFC666330
:10440000A08DE18D401A81B22AE0A08DE18D401A85
:1044100081B2E08D0028A5D00029A3D022680C32FB
:1044200052E8000F20F4907042E80007002FF5D109
:104430002068143050E8002F22F0010240E80027E5
:10444000002FF5D184F84230256320680C3050E805
:10445000002F22F0100240E80023002BF5D1666304
:104460002046FFF7A9FEF8BDFFE705062BD5150688
:1044700029D594F841002128F5D1A068B0F5805FD6
:1044800001D12069B0B1206A411C21622168007805
:104490004860E08C401E0004000CE084E3D12068FA
:1044A000C16821F08001C1602068C16841F040010D
:1044B000C160D8E7206A0088C0F308004860206A1D
:1044C000801C2062E5E74006CDD55006CBD5CA68F2
:1044D000204622F04002CA6084F8413000F00BF917
:1044E000C1E70000EB5D000870B5040004D094F84B
:1044F0004100002510B106E0012070BD84F8405055
:10450000204600F023F8242084F841002068C16888
:1045100021F40051C160204601F07CFD2068016952
:1045200021F4904101612068416921F02A01416133
:104530002068C16841F40051C1606564202084F89E
:10454000410084F842006563002070BD70B586B0FC
:10455000064614216846FBF7ABFE234930688842C3
:1045600040D122480025016841F010010160006837
:1045700000F0100005901D481438016841F0010159
:1045800001600068694600F0010005904FF4C060CA
:1045900000900220CDE9010503200390072004903C
:1045A0001348FDF76BFD144C124820604FF000607B
:1045B000C4E901054014C4E903506561A561E561E2
:1045C000256220466562FDF7A5FC08B1FCF7F9FFFE
:1045D000F463002211462520A663FEF7B3F82520D8
:1045E000FEF7A2F806B070BD00100140443802404A
:1045F00000000240406402407404002090F8423001
:10460000202B01D00220704721B11AB1002303638F
:1046100001F0CEBD012070470068094988420DD1E4
:1046200008480168084881608188491C89B28180F6
:104630000648012201440648FFF7E0BF704700002A
:104640000010014018000020CC0000206448002029
:104650002C04002070472DE9F843044690F84100EF
:10466000984616460D46202802D00220BDE8F88361
:1046700085B17EB100206064212084F84100FDF7FF
:1046800021FEA6848146E684A0682027B0F5805FDD
:1046900002D003E00120E9E7206910B12E46002591
:1046A0000EE000260CE08021204601F09CFDA8B918
:1046B000C6B116F8010B21684860E08C401EE0840A
:1046C000E08C4B464FF00002CDF800800028EAD184
:1046D0004FF04001204601F086FD40B184F8417062
:1046E0000320C3E735F8020BC0F30800E3E784F8C2
:1046F00041700020BAE77047FEE701684A69D2437B
:1047000052050FD46FF480624A61002140F8301FD7
:10471000202242738173026942F004020261017334
:1047200001207047002070472DE9F84304460068D7
:104730000D46DDE9089701689846164641F48071F8
:1047400001604B4600224FF001112046009700F017
:104750006BF848B120680068C00502D54FF40070BE
:1047600020640320BDE8F883216805F0FE0008619D
:104770003B464A461549204600F09EF888B9206815
:104780004169806900903A464946204600F0F2F8B7
:1047900048B1206C042804D12068016841F40071FC
:1047A00001600120DEE7F5B2B8F1010F09D0216800
:1047B000300A08613A464946204600F0DBF80028F6
:1047C000E7D1206805610020CCE70000020001006D
:1047D00070B516460D4604461EE02046FFF78DFFD5
:1047E00008B1012070BD681C16D0FDF76BFD801B61
:1047F000A84200D885B920684069C04340070BD55E
:10480000002044F8300F20216173A073216941F02A
:10481000200121612073E4E720684069C04340071C
:10482000DBD4002070BD00002DE9F0479846174604
:104830000D460446C1F30746DDF820902AE000BF8C
:10484000B8F1FF3F26D0FDF73DFDA0EB0901414542
:1048500002D8B8F1000F1DD12068012E16D0806952
:1048600025EA00000004000C12D00020B84211D14B
:10487000002044F8300F20216173A073216941F0BA
:104880002001216120730120BDE8F0874069E7E73E
:104890000120EBE72068012E0AD0806925EA00009C
:1048A0000004000C06D00020B842C9D00020EBE77D
:1048B0004069F3E70120F7E72DE9F04798461646EF
:1048C0000D4604464FF000094FF0200AC1F3074798
:1048D00023E020684069C043400515D42068016882
:1048E00041F40071016021686FF480604861C4F890
:1048F000309084F83DA084F83E90216C41F0040192
:10490000216484F83C9021E0701C06D0FDF7DAFCAD
:10491000A0EB0800B04203D816B1012F1FD021E050
:104920002068012F15D0806925EA00000004000CE2
:1049300018D000BF44F8309F84F80DA084F80E9082
:10494000216941F02001216184F80C900120BDE82B
:10495000F087406925EA00000004000CEAD12068D5
:10496000406901E02068806925EA00000004000C2D
:10497000AFD1ECE770B516460D4604461EE0204662
:10498000FFF7BBFE08B1012070BD681C16D0FDF713
:1049900099FC801BA84200D885B920684069C043B3
:1049A00000060BD5002044F8300F20216173A0735E
:1049B000216941F0200121612073E4E7206840690A
:1049C000C0430006DBD4002070BD00007FB500248A
:1049D0001A4800940194029417490394C0E9001402
:1049E000012505618460047680F820402907C162B2
:1049F0000226C6614910C460816280F8304045617A
:104A0000FCF761FF08B1FCF7DCFD0A20CDE90005E9
:104A1000694602940948FCF7FDFD08B1FCF7D1FD99
:104A20000520CDE9000669460448FCF7F3FD00289F
:104A300001D0FCF7C6FD7FBD00200140E80000204A
:104A40001CB500240C4900940A48019408600846EB
:104A5000FDF7CFF808B1FCF7B4FD0420CDE9000460
:104A6000002269460448FDF79DF8002801D0FCF7B4
:104A7000A8FD1CBD0074004090010020154808B539
:104A8000016841F480010160016801F48001009136
:104A9000016841F4001101600068002200F4001078
:104AA000009011461020FDF74DFE1020FDF73CFE52
:104AB000002211463820FDF745FE3820FDF734FE70
:104AC000002211463A20FDF73DFEBDE808403A209D
:104AD000FDF72ABE3038024010B503490348FCF701
:104AE00072FD0349087010BD0200002068C0000874
:104AF000010000202DE9F04387B014216846FBF740
:104B0000D7FB3B480024016841F0100101600168B7
:104B100001F010010591016841F004010160016894
:104B200001F004010591016841F080010160016814
:104B300001F080010591016841F001010160016807
:104B400001F001010591016841F002010160016875
:104B500001F002010591016841F00801016000685F
:104B6000244F00F008004FF4805605900022314693
:104B70003846FDF7A2FBDFF8809001224FF47C510C
:104B80004846FDF79AFB042000900220CDE901047D
:104B9000032003900520DFF86480049069464046B6
:104BA000FDF76CFA0125CDE90054694638460294B8
:104BB000FDF764FA4FF4FC50CDE900046946404625
:104BC0000294FDF75BFA0096CDE901546946384638
:104BD0000394FDF753FA4FF47C40CDE90005CDE98D
:104BE000025469464846FDF749FA07B0BDE8F0832C
:104BF0003038024000040240000C02400010024025
:104C0000144810B5124901601349416000214FF466
:104C100080428160C0E9031241618161C16101622A
:104C2000FDF796FB08B1FCF7CCFC00210948FDF725
:104C30004FFB08B1FCF7C5FC00210648FDF769FBF6
:104C4000002803D0BDE81040FCF7BBBC10BD00003D
:104C50000054004004020020801A060030B52648A7
:104C600087B024490024C0E900147F218160FF211E
:104C7000C0E9031444618461FEF7B8F908B1FCF798
:104C8000A0FC01211C48FEF75BF94AF2A555A84299
:104C90002DD014216846FBF70BFB172005948DF8E7
:104CA00000003B208DF8010037208DF802000394AE
:104CB0000022694610480494FEF758FA08B1FCF740
:104CC00080FC01208DF814008DF815008DF8160079
:104CD0008DF81740002205A90748FEF7FBF908B137
:104CE000FCF76FFC2A4601210348FEF72EF907B0B6
:104CF00030BD000000280040580200200648054949
:104D000001600021416081600622C160C0E9051296
:104D100001617047002C014078020020104810B556
:104D20000E4901604FF482714160002102228160CE
:104D3000C0E90312012242615202C0E90621016268
:104D4000416281620A21C162FEF778FE002803D029
:104D5000BDE81040FCF735BC10BD00000038004035
:104D6000FC0200200C4810B50A490160B3214160E3
:104D7000002141F28732C0E9021201618021816184
:104D8000FFF746F8002803D0BDE81040FCF719BC37
:104D900010BD000000200040E403002010B586B0E4
:104DA0000024174800940194029403940494134936
:104DB00005940160B321C0E901146321C0E9031423
:104DC00080218161FFF724F808B1FCF7FAFB4FF46A
:104DD0008050009069460A48FFF7BCF808B1FCF71C
:104DE000F0FB2020CDE9040404A90548FEF7C8FF24
:104DF000002801D0FCF7E5FB06B010BD0004004020
:104E0000540300201CB500240F4800940D49019460
:104E10000160B321C0E901146321C1608021816177
:104E2000FEF7F6FF08B1FCF7CCFB2020CDE900042B
:104E300069460548FEF7A4FF002801D0FCF7C1FB36
:104E40001CBD0000001000409C030020114810B55C
:104E50000F4901604FF4E1314160002181600C2273
:104E6000C160C0E904128161C161FFF73DFB08B177
:104E7000FCF7A7FB802208490648FFF776F90548AA
:104E800048300068016821F00801016010BD000091
:104E9000001001402C040020E4480020FEE7FEE75B
:104EA00070B5002404F1B000C0B200F09DF80020FD
:104EB00000F09AF8102000F097F80025002000F08C
:104EC000A5F86D1CEDB2802DF8D3641CE4B2042C5F
:104ED000E8D370BD70B56420FDF7BEF8084D00241E
:104EE000285D00F081F8641CE4B2162CF8D3FFF7BB
:104EF000D7FFBDE870400021084600F003B800006D
:104F00002000002010B50446B031C8B200F06CF8A3
:104F1000102040EA141000F067F804F00F00BDE81C
:104F2000104000F061B800002DE9F041203A002463
:104F30000D468046D6B27F2803D900204D1C8046FE
:104F4000EDB2102B29460FD0FFF7DCFF164906EB18
:104F5000460001EB4005285D00F058F8641CE4B2FF
:104F6000062CF8D3BDE8F081FFF7CCFF0F4F00BF50
:104F700004EB0610385C00F049F8641CE4B2082C1D
:104F8000F6D36D1CE9B24046FFF7BCFF5FF00004AA
:104F900004EB06103844007A00F038F8641CE4B2E0
:104FA000082CF5D3DEE700007C6C0308A46E030830
:104FB0002DE9F041984617460E46044600250DE0BF
:104FC000434631462046FFF7AFFF0834E4B2782C61
:104FD00002D90024B61CF6B26D1CEDB27A5D002A2F
:104FE000EED1BDE8F081000001B584B001214FF49D
:104FF000807204A88DE807000B4600227821024841
:10500000FDF76AFA05B000BD0402002001B584B0C6
:1050100001214FF4807204A88DE807000B4640225E
:1050200078210248FDF758FA05B000BD04020020BF
:105030007047010901EB810100F00F0000EB410016
:10504000C0B27047002102E00A38C0B2491C0A28E9
:10505000FAD2090740EA1160704700002DE9F041DB
:10506000044600680025C168490618D4C16841F0AB
:105070008001C160FDF726F906464FF47A780427CF
:1050800007E000BFFDF71EF9801B404501D9677797
:1050900001252068C068400601D4002DF2D02846C2
:1050A000BDE8F08170B5044600680025C16821F0B4
:1050B0008001C16020688068800606D42046FEF723
:1050C000B5F810B1042060770125284670BD0A6844
:1050D00042624A688262D1E902231A43D1E904316B
:1050E0000B43C16A1A4321F0F7011143C16200204A
:1050F0007047006800F0030070470844406970473B
:1051000070B50DF1100C11439CE870002343194356
:1051100029434268314347F6FF639A430A4342609A
:10512000002070BD0321016000207047D0F880008E
:1051300070470A688260D1E901231A43D1E903313B
:105140000B43C1681A436FF30B011143C160002088
:1051500070470968C0F880100020704710B585B00E
:1051600004463720CDE90010402002900020039033
:105170004FF48060049069462046FFF7DAFF41F261
:1051800088323721204600F09BF905B010BD0000A1
:1051900010B504460A4885B001432920CDE9001026
:1051A00040200290002003904FF4806004906946F4
:1051B0002046FFF7BEFF204600F03AFA05B010BDCA
:1051C0000000108010B585B004461020CDE9001015
:1051D00040200290002003904FF4806004906946C4
:1051E0002046FFF7A6FF41F288321021204600F04A
:1051F00067F905B010BD10B585B004460620CDE9AD
:10520000001040200290002003904FF48060049032
:1052100069462046FFF78DFF41F28832062120467D
:1052200000F04EF905B010BD30B585B0002405463C
:10523000009401944FF480600294CDE903406946E4
:105240002846FFF776FF0B484FF4FA510068B0FB91
:10525000F1F041F288314843401E03D24FF0004044
:1052600005B030BD696B0906F6D5C520A863204698
:10527000F6E700001C00002010B585B004464FF48E
:10528000D5700090082001904020029000200390EB
:105290004FF48060049069462046FFF74AFF20469D
:1052A00000F02CFA05B010BD10B585B004461220F0
:1052B000CDE9001040200290002003904FF4806060
:1052C000049069462046FFF734FF41F288321221EC
:1052D000204600F0F5F805B010BD10B585B00446C5
:1052E0001120CDE9001040200290002003904FF4DF
:1052F0008060049069462046FFF71BFF41F2883228
:105300001121204600F0DCF805B010BD10B585B0C5
:1053100004460720CDE900204020029000200390A1
:105320004FF48060049069462046FFF702FF41F287
:1053300088320721204600F0C3F805B010BD10B533
:1053400085B0044600210220CDE90010C020CDE93F
:1053500002014FF48060049069462046FFF7E9FEA1
:10536000204600F03DF905B010BD10B585B00446EB
:105370000920CDE90010C0200290002003904FF4D6
:105380008060049069462046FFF7D3FE204600F077
:1053900027F905B010BD10B585B0044600213320B3
:1053A000CDE900104020CDE90201000104906946DA
:1053B0002046FFF7BEFE41F288323321204600F03E
:1053C0007FF805B010BD10B585B004460D20CDE9BD
:1053D000001040200290002003904FF48060049061
:1053E00069462046FFF7A5FE41F288320D2120468E
:1053F00000F066F805B010BD30B585B00C46054626
:1054000000210320CDE900104020CDE90201000178
:10541000049069462846FFF78CFE22460321284661
:1054200000F028F905B030BD10B585B00446002164
:105430000C20CDE900104020CDE9020100010490CC
:1054400069462046FFF775FE034A0C21204600F00E
:1054500037F805B010BD000000E1F50510B585B0C6
:1054600004461920CDE9001040200290002003904E
:105470004FF48060049069462046FFF75AFE41F2DF
:1054800088321921204600F01BF805B010BD10B578
:1054900085B004461820CDE900104020029000207D
:1054A00003904FF48060049069462046FFF741FE68
:1054B00041F288321821204600F002F805B010BDF4
:1054C000454B10B51B684FF4FA54B3FBF4F3534348
:1054D0005B1E02D24FF0004010BD426B12F0450F30
:1054E000F6D01205F4D4426B520703D50421816330
:1054F000084610BD426BD20702D00121816305E04E
:10550000C52282630269D2B28A4201D0012010BD55
:105510000021FFF7F2FD3149084201D1002010BD02
:10552000002802DA4FF0007010BD410001D5402084
:1055300010BD810001D5802010BDC10002D54FF4FF
:10554000807010BD010102D54FF4007010BD410103
:1055500002D54FF4806010BDC10102D54FF4006048
:1055600010BD010202D54FF4805010BD410202D59A
:105570004FF4005010BD810202D54FF4804010BDA1
:10558000C10202D54FF4004010BD410302D54FF4D3
:10559000003010BD810302D54FF4802010BDC1033F
:1055A00002D54FF4002010BD010402D54FF4801045
:1055B00010BD410402D54FF4001010BD810402D586
:1055C0004FF4800010BD000702D54FF4000010BD5D
:1055D0004FF4803010BD00001C00002008E0FFFDEB
:1055E00012494FF4FA520968B1FBF2F141F28832E4
:1055F0005143491E02D24FF000407047426B12F0F7
:10560000450FF6D01205F4D4416B490703D50421A8
:10561000816308467047416BC90703D0012181634C
:1056200008467047C5218163002070471C00002098
:105630000F494FF4FA520968B1FBF2F141F2883296
:105640005143491E02D24FF000407047426B12F0A6
:10565000450FF6D01205F4D4416B490703D5042158
:10566000816308467047C5218163002070470000B0
:105670001C00002030B5204B4FF4FA541B68B3FBDC
:10568000F4F341F2883463435B1E02D24FF00040D2
:1056900030BD446B14F0450FF6D02405F4D4436BB1
:1056A0005B0703D504218163084630BD436BDB07EC
:1056B00002D00121816303E00369DBB28B4201D098
:1056C000012030BDC52181630021FFF716FD10F4D4
:1056D000604F04D0410406D54FF4005030BD000C9B
:1056E0001080002030BD000402D54FF4805030BD42
:1056F0004FF4803030BD00001C00002014494FF4EE
:10570000FA520968B1FBF2F141F288325143491E65
:1057100002D24FF000407047426B12F0450FF6D0B6
:105720001205F4D4416B490703D50421816308466F
:105730007047416BC90703D0012181630846704758
:10574000416B490601D5402181630020704700006C
:105750001C00002010B5064C01202070FBF77EFED7
:1057600018B9207820F001002070207810BD0000CA
:10577000000000202DE9F04788B00D460446FCF7F4
:10578000A1FD002682460096019637460821206832
:10579000FFF718FD00282CD1B4F850000104206850
:1057A000FFF7DCFC002824D1401E4FF00808CDE9AB
:1057B000020830204FF00209CDE904090120CDE9AB
:1057C000067002A92068FFF782FC2068FFF7E3FD5E
:1057D00000280ED16F462068416B11F02A0F0BD0C4
:1057E000416B090702D4416B89051AD5C0F838808E
:1057F000082008B0BDE8F087416B890205D5FFF7A6
:1058000095FC47F82600761C02E0416B8904E7D539
:10581000FCF758FDA0EB0A00401CDCD14FF0004023
:10582000E7E7416B890703D5C0F838900220E0E72D
:10583000416B890603D5202181630846D9E740F2F0
:105840003A518163019800BA2860009800BA6860F4
:105850000020CEE710B590B004460120ADF8380026
:105860002068FFF746FC002854D0606C032842D023
:105870002068FFF764FD00284AD100212068FFF767
:105880003CFC606704212068FFF737FCA067082113
:105890002068FFF732FCE0670C212068FFF72DFC41
:1058A000C4F88000606C032825D00EA92068FFF79B
:1058B000A3FD00282CD1606C03281CD0BDF8380053
:1058C000206501042068FFF750FD002820D1002149
:1058D0002068FFF712FC606604212068FFF70DFCCA
:1058E000A06608212068FFF708FCE0660C2120680C
:1058F000FFF703FC206704212068FFF7FEFB000D83
:10590000E06403A92046FDF739FD30B14FF0805027
:1059100010B010BD4FF08060FAE7B4F850000023DB
:1059200002042068FFF7F2FC0028F1D104F1100016
:1059300007C88DE8070094E80F00FFF7E1FB00209F
:10594000E6E700002DE9F84F0026044600963546AC
:10595000B0460068FFF768FC002827D12068FFF7F1
:105960008BFC4FF0805B4FF001094FF6FF7748B199
:10597000A6642068FFF758FC002817D1A06C012806
:1059800002D020E0C4F8489000212068FFF7E6FB31
:1059900058B918E000212068FFF7E0FB002805D186
:1059A00051462068FFF7F4FB10B15846BDE8F88F68
:1059B00000212068FFF7A1FB05464FEAD078009848
:1059C000401C009002E0DFF82CA00098B84202D200
:1059D000B8F1000FDED00098B84202D34FF08070CB
:1059E000E4E7680002D5C4F8449000E06664002053
:1059F000DCE70000000010C170B50546054C012031
:105A00002070FBF737FD18B92846FFF7A3FE20707A
:105A1000207870BD0000002010B588B014461748EB
:105A2000007810F0010F02D008B0032010BD41B182
:105A3000012909D002290FD0032915D0042008B06C
:105A400010BD002008B010BD6846FBF701FD0698A8
:105A50002060002008B010BD6846FBF7F9FC0798ED
:105A60002080002008B010BD6846FBF7F1FC0798C5
:105A7000400A2060002008B010BD00000000002097
:105A8000084610B511461A460124A31EFBF712FD65
:105A900020B9FBF7E3FC0028FBD10024204610BD11
:105AA000FFF758BE084610B511461A460124A31E3A
:105AB000FBF710FD20B9FBF7D1FC0028FBD1002437
:105AC000204610BDF8B515460E460B46009204461A
:105AD0000122022100F02CF8A0B9134813490068F4
